{
  "_format": "hh-sol-artifact-1",
  "contractName": "EggNFT",
  "sourceName": "contracts/Eggs.sol",
  "abi": [
    {
      "inputs": [
        {
          "internalType": "contract ERC20",
          "name": "_paymentCurrency",
          "type": "address"
        }
      ],
      "stateMutability": "nonpayable",
      "type": "constructor"
    },
    {
      "anonymous": false,
      "inputs": [
        {
          "indexed": true,
          "internalType": "address",
          "name": "owner",
          "type": "address"
        },
        {
          "indexed": true,
          "internalType": "address",
          "name": "approved",
          "type": "address"
        },
        {
          "indexed": true,
          "internalType": "uint256",
          "name": "tokenId",
          "type": "uint256"
        }
      ],
      "name": "Approval",
      "type": "event"
    },
    {
      "anonymous": false,
      "inputs": [
        {
          "indexed": true,
          "internalType": "address",
          "name": "owner",
          "type": "address"
        },
        {
          "indexed": true,
          "internalType": "address",
          "name": "operator",
          "type": "address"
        },
        {
          "indexed": false,
          "internalType": "bool",
          "name": "approved",
          "type": "bool"
        }
      ],
      "name": "ApprovalForAll",
      "type": "event"
    },
    {
      "anonymous": false,
      "inputs": [
        {
          "indexed": true,
          "internalType": "address",
          "name": "previousOwner",
          "type": "address"
        },
        {
          "indexed": true,
          "internalType": "address",
          "name": "newOwner",
          "type": "address"
        }
      ],
      "name": "OwnershipTransferred",
      "type": "event"
    },
    {
      "anonymous": false,
      "inputs": [
        {
          "indexed": true,
          "internalType": "address",
          "name": "from",
          "type": "address"
        },
        {
          "indexed": true,
          "internalType": "address",
          "name": "to",
          "type": "address"
        },
        {
          "indexed": true,
          "internalType": "uint256",
          "name": "tokenId",
          "type": "uint256"
        }
      ],
      "name": "Transfer",
      "type": "event"
    },
    {
      "inputs": [
        {
          "internalType": "address",
          "name": "to",
          "type": "address"
        },
        {
          "internalType": "uint256",
          "name": "tokenId",
          "type": "uint256"
        }
      ],
      "name": "approve",
      "outputs": [],
      "stateMutability": "nonpayable",
      "type": "function"
    },
    {
      "inputs": [
        {
          "internalType": "address",
          "name": "owner",
          "type": "address"
        }
      ],
      "name": "balanceOf",
      "outputs": [
        {
          "internalType": "uint256",
          "name": "",
          "type": "uint256"
        }
      ],
      "stateMutability": "view",
      "type": "function"
    },
    {
      "inputs": [],
      "name": "buyEgg",
      "outputs": [],
      "stateMutability": "nonpayable",
      "type": "function"
    },
    {
      "inputs": [
        {
          "internalType": "uint256",
          "name": "tokenId",
          "type": "uint256"
        }
      ],
      "name": "getApproved",
      "outputs": [
        {
          "internalType": "address",
          "name": "",
          "type": "address"
        }
      ],
      "stateMutability": "view",
      "type": "function"
    },
    {
      "inputs": [
        {
          "internalType": "address",
          "name": "owner",
          "type": "address"
        },
        {
          "internalType": "address",
          "name": "operator",
          "type": "address"
        }
      ],
      "name": "isApprovedForAll",
      "outputs": [
        {
          "internalType": "bool",
          "name": "",
          "type": "bool"
        }
      ],
      "stateMutability": "view",
      "type": "function"
    },
    {
      "inputs": [],
      "name": "name",
      "outputs": [
        {
          "internalType": "string",
          "name": "",
          "type": "string"
        }
      ],
      "stateMutability": "view",
      "type": "function"
    },
    {
      "inputs": [],
      "name": "owner",
      "outputs": [
        {
          "internalType": "address",
          "name": "",
          "type": "address"
        }
      ],
      "stateMutability": "view",
      "type": "function"
    },
    {
      "inputs": [
        {
          "internalType": "uint256",
          "name": "tokenId",
          "type": "uint256"
        }
      ],
      "name": "ownerOf",
      "outputs": [
        {
          "internalType": "address",
          "name": "",
          "type": "address"
        }
      ],
      "stateMutability": "view",
      "type": "function"
    },
    {
      "inputs": [],
      "name": "paymentCurrency",
      "outputs": [
        {
          "internalType": "contract ERC20",
          "name": "",
          "type": "address"
        }
      ],
      "stateMutability": "view",
      "type": "function"
    },
    {
      "inputs": [],
      "name": "renounceOwnership",
      "outputs": [],
      "stateMutability": "nonpayable",
      "type": "function"
    },
    {
      "inputs": [
        {
          "internalType": "address",
          "name": "to",
          "type": "address"
        },
        {
          "internalType": "string",
          "name": "uri",
          "type": "string"
        }
      ],
      "name": "safeMint",
      "outputs": [],
      "stateMutability": "nonpayable",
      "type": "function"
    },
    {
      "inputs": [
        {
          "internalType": "address",
          "name": "from",
          "type": "address"
        },
        {
          "internalType": "address",
          "name": "to",
          "type": "address"
        },
        {
          "internalType": "uint256",
          "name": "tokenId",
          "type": "uint256"
        }
      ],
      "name": "safeTransferFrom",
      "outputs": [],
      "stateMutability": "nonpayable",
      "type": "function"
    },
    {
      "inputs": [
        {
          "internalType": "address",
          "name": "from",
          "type": "address"
        },
        {
          "internalType": "address",
          "name": "to",
          "type": "address"
        },
        {
          "internalType": "uint256",
          "name": "tokenId",
          "type": "uint256"
        },
        {
          "internalType": "bytes",
          "name": "data",
          "type": "bytes"
        }
      ],
      "name": "safeTransferFrom",
      "outputs": [],
      "stateMutability": "nonpayable",
      "type": "function"
    },
    {
      "inputs": [
        {
          "internalType": "address",
          "name": "operator",
          "type": "address"
        },
        {
          "internalType": "bool",
          "name": "approved",
          "type": "bool"
        }
      ],
      "name": "setApprovalForAll",
      "outputs": [],
      "stateMutability": "nonpayable",
      "type": "function"
    },
    {
      "inputs": [
        {
          "internalType": "bytes4",
          "name": "interfaceId",
          "type": "bytes4"
        }
      ],
      "name": "supportsInterface",
      "outputs": [
        {
          "internalType": "bool",
          "name": "",
          "type": "bool"
        }
      ],
      "stateMutability": "view",
      "type": "function"
    },
    {
      "inputs": [],
      "name": "symbol",
      "outputs": [
        {
          "internalType": "string",
          "name": "",
          "type": "string"
        }
      ],
      "stateMutability": "view",
      "type": "function"
    },
    {
      "inputs": [
        {
          "internalType": "uint256",
          "name": "index",
          "type": "uint256"
        }
      ],
      "name": "tokenByIndex",
      "outputs": [
        {
          "internalType": "uint256",
          "name": "",
          "type": "uint256"
        }
      ],
      "stateMutability": "view",
      "type": "function"
    },
    {
      "inputs": [
        {
          "internalType": "address",
          "name": "owner",
          "type": "address"
        },
        {
          "internalType": "uint256",
          "name": "index",
          "type": "uint256"
        }
      ],
      "name": "tokenOfOwnerByIndex",
      "outputs": [
        {
          "internalType": "uint256",
          "name": "",
          "type": "uint256"
        }
      ],
      "stateMutability": "view",
      "type": "function"
    },
    {
      "inputs": [
        {
          "internalType": "uint256",
          "name": "tokenId",
          "type": "uint256"
        }
      ],
      "name": "tokenURI",
      "outputs": [
        {
          "internalType": "string",
          "name": "",
          "type": "string"
        }
      ],
      "stateMutability": "view",
      "type": "function"
    },
    {
      "inputs": [],
      "name": "totalSupply",
      "outputs": [
        {
          "internalType": "uint256",
          "name": "",
          "type": "uint256"
        }
      ],
      "stateMutability": "view",
      "type": "function"
    },
    {
      "inputs": [
        {
          "internalType": "address",
          "name": "from",
          "type": "address"
        },
        {
          "internalType": "address",
          "name": "to",
          "type": "address"
        },
        {
          "internalType": "uint256",
          "name": "tokenId",
          "type": "uint256"
        }
      ],
      "name": "transferFrom",
      "outputs": [],
      "stateMutability": "nonpayable",
      "type": "function"
    },
    {
      "inputs": [
        {
          "internalType": "address",
          "name": "newOwner",
          "type": "address"
        }
      ],
      "name": "transferOwnership",
      "outputs": [],
      "stateMutability": "nonpayable",
      "type": "function"
    }
  ],
  "bytecode": "0x60806040523480156200001157600080fd5b50604051620043bc380380620043bc8339818101604052810190620000379190620002ef565b6040518060400160405280600781526020017f456767204e4654000000000000000000000000000000000000000000000000008152506040518060400160405280600481526020017f45474753000000000000000000000000000000000000000000000000000000008152508160009081620000b491906200059b565b508060019081620000c691906200059b565b505050620000e9620000dd620001a360201b60201c565b620001ab60201b60201c565b600073ffffffffffffffffffffffffffffffffffffffff168173ffffffffffffffffffffffffffffffffffffffff16036200015b576040517f08c379a0000000000000000000000000000000000000000000000000000000008152600401620001529062000709565b60405180910390fd5b80600d60006101000a81548173ffffffffffffffffffffffffffffffffffffffff021916908373ffffffffffffffffffffffffffffffffffffffff160217905550506200072b565b600033905090565b6000600b60009054906101000a900473ffffffffffffffffffffffffffffffffffffffff16905081600b60006101000a81548173ffffffffffffffffffffffffffffffffffffffff021916908373ffffffffffffffffffffffffffffffffffffffff1602179055508173ffffffffffffffffffffffffffffffffffffffff168173ffffffffffffffffffffffffffffffffffffffff167f8be0079c531659141344cd1fd0a4f28419497f9722a3daafe3b4186f6b6457e060405160405180910390a35050565b600080fd5b600073ffffffffffffffffffffffffffffffffffffffff82169050919050565b6000620002a38262000276565b9050919050565b6000620002b78262000296565b9050919050565b620002c981620002aa565b8114620002d557600080fd5b50565b600081519050620002e981620002be565b92915050565b60006020828403121562000308576200030762000271565b5b60006200031884828501620002d8565b91505092915050565b600081519050919050565b7f4e487b7100000000000000000000000000000000000000000000000000000000600052604160045260246000fd5b7f4e487b7100000000000000000000000000000000000000000000000000000000600052602260045260246000fd5b60006002820490506001821680620003a357607f821691505b602082108103620003b957620003b86200035b565b5b50919050565b60008190508160005260206000209050919050565b60006020601f8301049050919050565b600082821b905092915050565b600060088302620004237fffffffffffffffffffffffffffffffffffffffffffffffffffffffffffffffff82620003e4565b6200042f8683620003e4565b95508019841693508086168417925050509392505050565b6000819050919050565b6000819050919050565b60006200047c62000476620004708462000447565b62000451565b62000447565b9050919050565b6000819050919050565b62000498836200045b565b620004b0620004a78262000483565b848454620003f1565b825550505050565b600090565b620004c7620004b8565b620004d48184846200048d565b505050565b5b81811015620004fc57620004f0600082620004bd565b600181019050620004da565b5050565b601f8211156200054b576200051581620003bf565b6200052084620003d4565b8101602085101562000530578190505b620005486200053f85620003d4565b830182620004d9565b50505b505050565b600082821c905092915050565b6000620005706000198460080262000550565b1980831691505092915050565b60006200058b83836200055d565b9150826002028217905092915050565b620005a68262000321565b67ffffffffffffffff811115620005c257620005c16200032c565b5b620005ce82546200038a565b620005db82828562000500565b600060209050601f831160018114620006135760008415620005fe578287015190505b6200060a85826200057d565b8655506200067a565b601f1984166200062386620003bf565b60005b828110156200064d5784890151825560018201915060208501945060208101905062000626565b868310156200066d578489015162000669601f8916826200055d565b8355505b6001600288020188555050505b505050505050565b600082825260208201905092915050565b7f546f6b656e20616464726573732063616e27742062652061646472657373207a60008201527f65726f0000000000000000000000000000000000000000000000000000000000602082015250565b6000620006f160238362000682565b9150620006fe8262000693565b604082019050919050565b600060208201905081810360008301526200072481620006e2565b9050919050565b613c81806200073b6000396000f3fe608060405234801561001057600080fd5b50600436106101425760003560e01c806370a08231116100b8578063a22cb4651161007c578063a22cb46514610365578063b88d4fde14610381578063c87b56dd1461039d578063d204c45e146103cd578063e985e9c5146103e9578063f2fde38b1461041957610142565b806370a08231146102e5578063715018a6146103155780637d6355021461031f5780638da5cb5b1461032957806395d89b411461034757610142565b806323b872dd1161010a57806323b872dd146101ff5780632f745c591461021b5780633d15cc6d1461024b57806342842e0e146102695780634f6ccce7146102855780636352211e146102b557610142565b806301ffc9a71461014757806306fdde0314610177578063081812fc14610195578063095ea7b3146101c557806318160ddd146101e1575b600080fd5b610161600480360381019061015c91906124c8565b610435565b60405161016e9190612510565b60405180910390f35b61017f610447565b60405161018c91906125bb565b60405180910390f35b6101af60048036038101906101aa9190612613565b6104d9565b6040516101bc9190612681565b60405180910390f35b6101df60048036038101906101da91906126c8565b61051f565b005b6101e9610636565b6040516101f69190612717565b60405180910390f35b61021960048036038101906102149190612732565b610643565b005b610235600480360381019061023091906126c8565b6106a3565b6040516102429190612717565b60405180910390f35b610253610748565b60405161026091906127e4565b60405180910390f35b610283600480360381019061027e9190612732565b61076e565b005b61029f600480360381019061029a9190612613565b61078e565b6040516102ac9190612717565b60405180910390f35b6102cf60048036038101906102ca9190612613565b6107ff565b6040516102dc9190612681565b60405180910390f35b6102ff60048036038101906102fa91906127ff565b610885565b60405161030c9190612717565b60405180910390f35b61031d61093c565b005b610327610950565b005b610331610a8f565b60405161033e9190612681565b60405180910390f35b61034f610ab9565b60405161035c91906125bb565b60405180910390f35b61037f600480360381019061037a9190612858565b610b4b565b005b61039b600480360381019061039691906129cd565b610b61565b005b6103b760048036038101906103b29190612613565b610bc3565b6040516103c491906125bb565b60405180910390f35b6103e760048036038101906103e29190612af1565b610c1d565b005b61040360048036038101906103fe9190612b4d565b610c56565b6040516104109190612510565b60405180910390f35b610433600480360381019061042e91906127ff565b610cea565b005b600061044082610d6d565b9050919050565b60606000805461045690612bbc565b80601f016020809104026020016040519081016040528092919081815260200182805461048290612bbc565b80156104cf5780601f106104a4576101008083540402835291602001916104cf565b820191906000526020600020905b8154815290600101906020018083116104b257829003601f168201915b5050505050905090565b60006104e482610de7565b6004600083815260200190815260200160002060009054906101000a900473ffffffffffffffffffffffffffffffffffffffff169050919050565b600061052a826107ff565b90508073ffffffffffffffffffffffffffffffffffffffff168373ffffffffffffffffffffffffffffffffffffffff160361059a576040517f08c379a000000000000000000000000000000000000000000000000000000000815260040161059190612c5f565b60405180910390fd5b8073ffffffffffffffffffffffffffffffffffffffff166105b9610e32565b73ffffffffffffffffffffffffffffffffffffffff1614806105e857506105e7816105e2610e32565b610c56565b5b610627576040517f08c379a000000000000000000000000000000000000000000000000000000000815260040161061e90612cf1565b60405180910390fd5b6106318383610e3a565b505050565b6000600880549050905090565b61065461064e610e32565b82610ef3565b610693576040517f08c379a000000000000000000000000000000000000000000000000000000000815260040161068a90612d83565b60405180910390fd5b61069e838383610f88565b505050565b60006106ae83610885565b82106106ef576040517f08c379a00000000000000000000000000000000000000000000000000000000081526004016106e690612e15565b60405180910390fd5b600660008473ffffffffffffffffffffffffffffffffffffffff1673ffffffffffffffffffffffffffffffffffffffff168152602001908152602001600020600083815260200190815260200160002054905092915050565b600d60009054906101000a900473ffffffffffffffffffffffffffffffffffffffff1681565b61078983838360405180602001604052806000815250610b61565b505050565b6000610798610636565b82106107d9576040517f08c379a00000000000000000000000000000000000000000000000000000000081526004016107d090612ea7565b60405180910390fd5b600882815481106107ed576107ec612ec7565b5b90600052602060002001549050919050565b60008061080b83611281565b9050600073ffffffffffffffffffffffffffffffffffffffff168173ffffffffffffffffffffffffffffffffffffffff160361087c576040517f08c379a000000000000000000000000000000000000000000000000000000000815260040161087390612f42565b60405180910390fd5b80915050919050565b60008073ffffffffffffffffffffffffffffffffffffffff168273ffffffffffffffffffffffffffffffffffffffff16036108f5576040517f08c379a00000000000000000000000000000000000000000000000000000000081526004016108ec90612fd4565b60405180910390fd5b600360008373ffffffffffffffffffffffffffffffffffffffff1673ffffffffffffffffffffffffffffffffffffffff168152602001908152602001600020549050919050565b6109446112be565b61094e600061133c565b565b600d60009054906101000a900473ffffffffffffffffffffffffffffffffffffffff1673ffffffffffffffffffffffffffffffffffffffff166323b872dd3330678ac7230489e800006040518463ffffffff1660e01b81526004016109b79392919061302f565b6020604051808303816000875af11580156109d6573d6000803e3d6000fd5b505050506040513d601f19601f820116820180604052508101906109fa919061307b565b610a39576040517f08c379a0000000000000000000000000000000000000000000000000000000008152600401610a30906130f4565b60405180910390fd5b6000610a45600c611402565b9050610a51600c611410565b610a5b3382611426565b610a8c81610a6883611444565b604051602001610a789190613234565b604051602081830303815290604052611512565b50565b6000600b60009054906101000a900473ffffffffffffffffffffffffffffffffffffffff16905090565b606060018054610ac890612bbc565b80601f0160208091040260200160405190810160405280929190818152602001828054610af490612bbc565b8015610b415780601f10610b1657610100808354040283529160200191610b41565b820191906000526020600020905b815481529060010190602001808311610b2457829003601f168201915b5050505050905090565b610b5d610b56610e32565b838361157f565b5050565b610b72610b6c610e32565b83610ef3565b610bb1576040517f08c379a0000000000000000000000000000000000000000000000000000000008152600401610ba890612d83565b60405180910390fd5b610bbd848484846116eb565b50505050565b6060610bce82611747565b610c0d576040517f08c379a0000000000000000000000000000000000000000000000000000000008152600401610c04906132d3565b60405180910390fd5b610c1682611788565b9050919050565b610c256112be565b6000610c31600c611402565b9050610c3d600c611410565b610c478382611426565b610c518183611512565b505050565b6000600560008473ffffffffffffffffffffffffffffffffffffffff1673ffffffffffffffffffffffffffffffffffffffff16815260200190815260200160002060008373ffffffffffffffffffffffffffffffffffffffff1673ffffffffffffffffffffffffffffffffffffffff16815260200190815260200160002060009054906101000a900460ff16905092915050565b610cf26112be565b600073ffffffffffffffffffffffffffffffffffffffff168173ffffffffffffffffffffffffffffffffffffffff1603610d61576040517f08c379a0000000000000000000000000000000000000000000000000000000008152600401610d5890613365565b60405180910390fd5b610d6a8161133c565b50565b60007f780e9d63000000000000000000000000000000000000000000000000000000007bffffffffffffffffffffffffffffffffffffffffffffffffffffffff1916827bffffffffffffffffffffffffffffffffffffffffffffffffffffffff19161480610de05750610ddf8261189a565b5b9050919050565b610df081611747565b610e2f576040517f08c379a0000000000000000000000000000000000000000000000000000000008152600401610e2690612f42565b60405180910390fd5b50565b600033905090565b816004600083815260200190815260200160002060006101000a81548173ffffffffffffffffffffffffffffffffffffffff021916908373ffffffffffffffffffffffffffffffffffffffff160217905550808273ffffffffffffffffffffffffffffffffffffffff16610ead836107ff565b73ffffffffffffffffffffffffffffffffffffffff167f8c5be1e5ebec7d5bd14f71427d1e84f3dd0314c0f7b2291e5b200ac8c7c3b92560405160405180910390a45050565b600080610eff836107ff565b90508073ffffffffffffffffffffffffffffffffffffffff168473ffffffffffffffffffffffffffffffffffffffff161480610f415750610f408185610c56565b5b80610f7f57508373ffffffffffffffffffffffffffffffffffffffff16610f67846104d9565b73ffffffffffffffffffffffffffffffffffffffff16145b91505092915050565b8273ffffffffffffffffffffffffffffffffffffffff16610fa8826107ff565b73ffffffffffffffffffffffffffffffffffffffff1614610ffe576040517f08c379a0000000000000000000000000000000000000000000000000000000008152600401610ff5906133f7565b60405180910390fd5b600073ffffffffffffffffffffffffffffffffffffffff168273ffffffffffffffffffffffffffffffffffffffff160361106d576040517f08c379a000000000000000000000000000000000000000000000000000000000815260040161106490613489565b60405180910390fd5b61107a838383600161197c565b8273ffffffffffffffffffffffffffffffffffffffff1661109a826107ff565b73ffffffffffffffffffffffffffffffffffffffff16146110f0576040517f08c379a00000000000000000000000000000000000000000000000000000000081526004016110e7906133f7565b60405180910390fd5b6004600082815260200190815260200160002060006101000a81549073ffffffffffffffffffffffffffffffffffffffff02191690556001600360008573ffffffffffffffffffffffffffffffffffffffff1673ffffffffffffffffffffffffffffffffffffffff168152602001908152602001600020600082825403925050819055506001600360008473ffffffffffffffffffffffffffffffffffffffff1673ffffffffffffffffffffffffffffffffffffffff16815260200190815260200160002060008282540192505081905550816002600083815260200190815260200160002060006101000a81548173ffffffffffffffffffffffffffffffffffffffff021916908373ffffffffffffffffffffffffffffffffffffffff160217905550808273ffffffffffffffffffffffffffffffffffffffff168473ffffffffffffffffffffffffffffffffffffffff167fddf252ad1be2c89b69c2b068fc378daa952ba7f163c4a11628f55a4df523b3ef60405160405180910390a461127c838383600161198e565b505050565b60006002600083815260200190815260200160002060009054906101000a900473ffffffffffffffffffffffffffffffffffffffff169050919050565b6112c6610e32565b73ffffffffffffffffffffffffffffffffffffffff166112e4610a8f565b73ffffffffffffffffffffffffffffffffffffffff161461133a576040517f08c379a0000000000000000000000000000000000000000000000000000000008152600401611331906134f5565b60405180910390fd5b565b6000600b60009054906101000a900473ffffffffffffffffffffffffffffffffffffffff16905081600b60006101000a81548173ffffffffffffffffffffffffffffffffffffffff021916908373ffffffffffffffffffffffffffffffffffffffff1602179055508173ffffffffffffffffffffffffffffffffffffffff168173ffffffffffffffffffffffffffffffffffffffff167f8be0079c531659141344cd1fd0a4f28419497f9722a3daafe3b4186f6b6457e060405160405180910390a35050565b600081600001549050919050565b6001816000016000828254019250508190555050565b611440828260405180602001604052806000815250611994565b5050565b606060006001611453846119ef565b01905060008167ffffffffffffffff811115611472576114716128a2565b5b6040519080825280601f01601f1916602001820160405280156114a45781602001600182028036833780820191505090505b509050600082602001820190505b600115611507578080600190039150507f3031323334353637383961626364656600000000000000000000000000000000600a86061a8153600a85816114fb576114fa613515565b5b049450600085036114b2575b819350505050919050565b61151b82611747565b61155a576040517f08c379a0000000000000000000000000000000000000000000000000000000008152600401611551906135b6565b60405180910390fd5b80600a6000848152602001908152602001600020908161157a9190613778565b505050565b8173ffffffffffffffffffffffffffffffffffffffff168373ffffffffffffffffffffffffffffffffffffffff16036115ed576040517f08c379a00000000000000000000000000000000000000000000000000000000081526004016115e490613896565b60405180910390fd5b80600560008573ffffffffffffffffffffffffffffffffffffffff1673ffffffffffffffffffffffffffffffffffffffff16815260200190815260200160002060008473ffffffffffffffffffffffffffffffffffffffff1673ffffffffffffffffffffffffffffffffffffffff16815260200190815260200160002060006101000a81548160ff0219169083151502179055508173ffffffffffffffffffffffffffffffffffffffff168373ffffffffffffffffffffffffffffffffffffffff167f17307eab39ab6107e8899845ad3d59bd9653f200f220920489ca2b5937696c31836040516116de9190612510565b60405180910390a3505050565b6116f6848484610f88565b61170284848484611b42565b611741576040517f08c379a000000000000000000000000000000000000000000000000000000000815260040161173890613928565b60405180910390fd5b50505050565b60008073ffffffffffffffffffffffffffffffffffffffff1661176983611281565b73ffffffffffffffffffffffffffffffffffffffff1614159050919050565b606061179382610de7565b6000600a600084815260200190815260200160002080546117b390612bbc565b80601f01602080910402602001604051908101604052809291908181526020018280546117df90612bbc565b801561182c5780601f106118015761010080835404028352916020019161182c565b820191906000526020600020905b81548152906001019060200180831161180f57829003601f168201915b50505050509050600061183d611cc9565b90506000815103611852578192505050611895565b60008251111561188757808260405160200161186f929190613948565b60405160208183030381529060405292505050611895565b61189084611ce0565b925050505b919050565b60007f80ac58cd000000000000000000000000000000000000000000000000000000007bffffffffffffffffffffffffffffffffffffffffffffffffffffffff1916827bffffffffffffffffffffffffffffffffffffffffffffffffffffffff1916148061196557507f5b5e139f000000000000000000000000000000000000000000000000000000007bffffffffffffffffffffffffffffffffffffffffffffffffffffffff1916827bffffffffffffffffffffffffffffffffffffffffffffffffffffffff1916145b80611975575061197482611d48565b5b9050919050565b61198884848484611db2565b50505050565b50505050565b61199e8383611f10565b6119ab6000848484611b42565b6119ea576040517f08c379a00000000000000000000000000000000000000000000000000000000081526004016119e190613928565b60405180910390fd5b505050565b600080600090507a184f03e93ff9f4daa797ed6e38ed64bf6a1f0100000000000000008310611a4d577a184f03e93ff9f4daa797ed6e38ed64bf6a1f0100000000000000008381611a4357611a42613515565b5b0492506040810190505b6d04ee2d6d415b85acef81000000008310611a8a576d04ee2d6d415b85acef81000000008381611a8057611a7f613515565b5b0492506020810190505b662386f26fc100008310611ab957662386f26fc100008381611aaf57611aae613515565b5b0492506010810190505b6305f5e1008310611ae2576305f5e1008381611ad857611ad7613515565b5b0492506008810190505b6127108310611b07576127108381611afd57611afc613515565b5b0492506004810190505b60648310611b2a5760648381611b2057611b1f613515565b5b0492506002810190505b600a8310611b39576001810190505b80915050919050565b6000611b638473ffffffffffffffffffffffffffffffffffffffff1661212d565b15611cbc578373ffffffffffffffffffffffffffffffffffffffff1663150b7a02611b8c610e32565b8786866040518563ffffffff1660e01b8152600401611bae94939291906139c1565b6020604051808303816000875af1925050508015611bea57506040513d601f19601f82011682018060405250810190611be79190613a22565b60015b611c6c573d8060008114611c1a576040519150601f19603f3d011682016040523d82523d6000602084013e611c1f565b606091505b506000815103611c64576040517f08c379a0000000000000000000000000000000000000000000000000000000008152600401611c5b90613928565b60405180910390fd5b805181602001fd5b63150b7a0260e01b7bffffffffffffffffffffffffffffffffffffffffffffffffffffffff1916817bffffffffffffffffffffffffffffffffffffffffffffffffffffffff191614915050611cc1565b600190505b949350505050565b606060405180602001604052806000815250905090565b6060611ceb82610de7565b6000611cf5611cc9565b90506000815111611d155760405180602001604052806000815250611d40565b80611d1f84611444565b604051602001611d30929190613948565b6040516020818303038152906040525b915050919050565b60007f01ffc9a7000000000000000000000000000000000000000000000000000000007bffffffffffffffffffffffffffffffffffffffffffffffffffffffff1916827bffffffffffffffffffffffffffffffffffffffffffffffffffffffff1916149050919050565b611dbe84848484612150565b6001811115611e02576040517f08c379a0000000000000000000000000000000000000000000000000000000008152600401611df990613ac1565b60405180910390fd5b6000829050600073ffffffffffffffffffffffffffffffffffffffff168573ffffffffffffffffffffffffffffffffffffffff1603611e4957611e4481612156565b611e88565b8373ffffffffffffffffffffffffffffffffffffffff168573ffffffffffffffffffffffffffffffffffffffff1614611e8757611e86858261219f565b5b5b600073ffffffffffffffffffffffffffffffffffffffff168473ffffffffffffffffffffffffffffffffffffffff1603611eca57611ec58161230c565b611f09565b8473ffffffffffffffffffffffffffffffffffffffff168473ffffffffffffffffffffffffffffffffffffffff1614611f0857611f0784826123dd565b5b5b5050505050565b600073ffffffffffffffffffffffffffffffffffffffff168273ffffffffffffffffffffffffffffffffffffffff1603611f7f576040517f08c379a0000000000000000000000000000000000000000000000000000000008152600401611f7690613b2d565b60405180910390fd5b611f8881611747565b15611fc8576040517f08c379a0000000000000000000000000000000000000000000000000000000008152600401611fbf90613b99565b60405180910390fd5b611fd660008383600161197c565b611fdf81611747565b1561201f576040517f08c379a000000000000000000000000000000000000000000000000000000000815260040161201690613b99565b60405180910390fd5b6001600360008473ffffffffffffffffffffffffffffffffffffffff1673ffffffffffffffffffffffffffffffffffffffff16815260200190815260200160002060008282540192505081905550816002600083815260200190815260200160002060006101000a81548173ffffffffffffffffffffffffffffffffffffffff021916908373ffffffffffffffffffffffffffffffffffffffff160217905550808273ffffffffffffffffffffffffffffffffffffffff16600073ffffffffffffffffffffffffffffffffffffffff167fddf252ad1be2c89b69c2b068fc378daa952ba7f163c4a11628f55a4df523b3ef60405160405180910390a461212960008383600161198e565b5050565b6000808273ffffffffffffffffffffffffffffffffffffffff163b119050919050565b50505050565b6008805490506009600083815260200190815260200160002081905550600881908060018154018082558091505060019003906000526020600020016000909190919091505550565b600060016121ac84610885565b6121b69190613be8565b905060006007600084815260200190815260200160002054905081811461229b576000600660008673ffffffffffffffffffffffffffffffffffffffff1673ffffffffffffffffffffffffffffffffffffffff168152602001908152602001600020600084815260200190815260200160002054905080600660008773ffffffffffffffffffffffffffffffffffffffff1673ffffffffffffffffffffffffffffffffffffffff168152602001908152602001600020600084815260200190815260200160002081905550816007600083815260200190815260200160002081905550505b6007600084815260200190815260200160002060009055600660008573ffffffffffffffffffffffffffffffffffffffff1673ffffffffffffffffffffffffffffffffffffffff16815260200190815260200160002060008381526020019081526020016000206000905550505050565b600060016008805490506123209190613be8565b90506000600960008481526020019081526020016000205490506000600883815481106123505761234f612ec7565b5b90600052602060002001549050806008838154811061237257612371612ec7565b5b9060005260206000200181905550816009600083815260200190815260200160002081905550600960008581526020019081526020016000206000905560088054806123c1576123c0613c1c565b5b6001900381819060005260206000200160009055905550505050565b60006123e883610885565b905081600660008573ffffffffffffffffffffffffffffffffffffffff1673ffffffffffffffffffffffffffffffffffffffff168152602001908152602001600020600083815260200190815260200160002081905550806007600084815260200190815260200160002081905550505050565b6000604051905090565b600080fd5b600080fd5b60007fffffffff0000000000000000000000000000000000000000000000000000000082169050919050565b6124a581612470565b81146124b057600080fd5b50565b6000813590506124c28161249c565b92915050565b6000602082840312156124de576124dd612466565b5b60006124ec848285016124b3565b91505092915050565b60008115159050919050565b61250a816124f5565b82525050565b60006020820190506125256000830184612501565b92915050565b600081519050919050565b600082825260208201905092915050565b60005b8381101561256557808201518184015260208101905061254a565b60008484015250505050565b6000601f19601f8301169050919050565b600061258d8261252b565b6125978185612536565b93506125a7818560208601612547565b6125b081612571565b840191505092915050565b600060208201905081810360008301526125d58184612582565b905092915050565b6000819050919050565b6125f0816125dd565b81146125fb57600080fd5b50565b60008135905061260d816125e7565b92915050565b60006020828403121561262957612628612466565b5b6000612637848285016125fe565b91505092915050565b600073ffffffffffffffffffffffffffffffffffffffff82169050919050565b600061266b82612640565b9050919050565b61267b81612660565b82525050565b60006020820190506126966000830184612672565b92915050565b6126a581612660565b81146126b057600080fd5b50565b6000813590506126c28161269c565b92915050565b600080604083850312156126df576126de612466565b5b60006126ed858286016126b3565b92505060206126fe858286016125fe565b9150509250929050565b612711816125dd565b82525050565b600060208201905061272c6000830184612708565b92915050565b60008060006060848603121561274b5761274a612466565b5b6000612759868287016126b3565b935050602061276a868287016126b3565b925050604061277b868287016125fe565b9150509250925092565b6000819050919050565b60006127aa6127a56127a084612640565b612785565b612640565b9050919050565b60006127bc8261278f565b9050919050565b60006127ce826127b1565b9050919050565b6127de816127c3565b82525050565b60006020820190506127f960008301846127d5565b92915050565b60006020828403121561281557612814612466565b5b6000612823848285016126b3565b91505092915050565b612835816124f5565b811461284057600080fd5b50565b6000813590506128528161282c565b92915050565b6000806040838503121561286f5761286e612466565b5b600061287d858286016126b3565b925050602061288e85828601612843565b9150509250929050565b600080fd5b600080fd5b7f4e487b7100000000000000000000000000000000000000000000000000000000600052604160045260246000fd5b6128da82612571565b810181811067ffffffffffffffff821117156128f9576128f86128a2565b5b80604052505050565b600061290c61245c565b905061291882826128d1565b919050565b600067ffffffffffffffff821115612938576129376128a2565b5b61294182612571565b9050602081019050919050565b82818337600083830152505050565b600061297061296b8461291d565b612902565b90508281526020810184848401111561298c5761298b61289d565b5b61299784828561294e565b509392505050565b600082601f8301126129b4576129b3612898565b5b81356129c484826020860161295d565b91505092915050565b600080600080608085870312156129e7576129e6612466565b5b60006129f5878288016126b3565b9450506020612a06878288016126b3565b9350506040612a17878288016125fe565b925050606085013567ffffffffffffffff811115612a3857612a3761246b565b5b612a448782880161299f565b91505092959194509250565b600067ffffffffffffffff821115612a6b57612a6a6128a2565b5b612a7482612571565b9050602081019050919050565b6000612a94612a8f84612a50565b612902565b905082815260208101848484011115612ab057612aaf61289d565b5b612abb84828561294e565b509392505050565b600082601f830112612ad857612ad7612898565b5b8135612ae8848260208601612a81565b91505092915050565b60008060408385031215612b0857612b07612466565b5b6000612b16858286016126b3565b925050602083013567ffffffffffffffff811115612b3757612b3661246b565b5b612b4385828601612ac3565b9150509250929050565b60008060408385031215612b6457612b63612466565b5b6000612b72858286016126b3565b9250506020612b83858286016126b3565b9150509250929050565b7f4e487b7100000000000000000000000000000000000000000000000000000000600052602260045260246000fd5b60006002820490506001821680612bd457607f821691505b602082108103612be757612be6612b8d565b5b50919050565b7f4552433732313a20617070726f76616c20746f2063757272656e74206f776e6560008201527f7200000000000000000000000000000000000000000000000000000000000000602082015250565b6000612c49602183612536565b9150612c5482612bed565b604082019050919050565b60006020820190508181036000830152612c7881612c3c565b9050919050565b7f4552433732313a20617070726f76652063616c6c6572206973206e6f7420746f60008201527f6b656e206f776e6572206f7220617070726f76656420666f7220616c6c000000602082015250565b6000612cdb603d83612536565b9150612ce682612c7f565b604082019050919050565b60006020820190508181036000830152612d0a81612cce565b9050919050565b7f4552433732313a2063616c6c6572206973206e6f7420746f6b656e206f776e6560008201527f72206f7220617070726f76656400000000000000000000000000000000000000602082015250565b6000612d6d602d83612536565b9150612d7882612d11565b604082019050919050565b60006020820190508181036000830152612d9c81612d60565b9050919050565b7f455243373231456e756d657261626c653a206f776e657220696e646578206f7560008201527f74206f6620626f756e6473000000000000000000000000000000000000000000602082015250565b6000612dff602b83612536565b9150612e0a82612da3565b604082019050919050565b60006020820190508181036000830152612e2e81612df2565b9050919050565b7f455243373231456e756d657261626c653a20676c6f62616c20696e646578206f60008201527f7574206f6620626f756e64730000000000000000000000000000000000000000602082015250565b6000612e91602c83612536565b9150612e9c82612e35565b604082019050919050565b60006020820190508181036000830152612ec081612e84565b9050919050565b7f4e487b7100000000000000000000000000000000000000000000000000000000600052603260045260246000fd5b7f4552433732313a20696e76616c696420746f6b656e2049440000000000000000600082015250565b6000612f2c601883612536565b9150612f3782612ef6565b602082019050919050565b60006020820190508181036000830152612f5b81612f1f565b9050919050565b7f4552433732313a2061646472657373207a65726f206973206e6f74206120766160008201527f6c6964206f776e65720000000000000000000000000000000000000000000000602082015250565b6000612fbe602983612536565b9150612fc982612f62565b604082019050919050565b60006020820190508181036000830152612fed81612fb1565b9050919050565b6000819050919050565b600061301961301461300f84612ff4565b612785565b6125dd565b9050919050565b61302981612ffe565b82525050565b60006060820190506130446000830186612672565b6130516020830185612672565b61305e6040830184613020565b949350505050565b6000815190506130758161282c565b92915050565b60006020828403121561309157613090612466565b5b600061309f84828501613066565b91505092915050565b7f4661696c656420746f2070726f63657373207061796d656e7421000000000000600082015250565b60006130de601a83612536565b91506130e9826130a8565b602082019050919050565b6000602082019050818103600083015261310d816130d1565b9050919050565b600081905092915050565b7f68747470733a2f2f676174657761792e70696e6174612e636c6f75642f69706660008201527f732f516d59446d38427a796534524d53376839485576314b6f7570616a71586360208201527f73664b5557774d6547767343335a6b412f6567676f3030000000000000000000604082015250565b60006131a1605783613114565b91506131ac8261311f565b605782019050919050565b60006131c28261252b565b6131cc8185613114565b93506131dc818560208601612547565b80840191505092915050565b7f2e6a736f6e000000000000000000000000000000000000000000000000000000600082015250565b600061321e600583613114565b9150613229826131e8565b600582019050919050565b600061323f82613194565b915061324b82846131b7565b915061325682613211565b915081905092915050565b7f4552433732314d657461646174613a2055524920717565727920666f72206e6f60008201527f6e6578697374656e7420746f6b656e0000000000000000000000000000000000602082015250565b60006132bd602f83612536565b91506132c882613261565b604082019050919050565b600060208201905081810360008301526132ec816132b0565b9050919050565b7f4f776e61626c653a206e6577206f776e657220697320746865207a65726f206160008201527f6464726573730000000000000000000000000000000000000000000000000000602082015250565b600061334f602683612536565b915061335a826132f3565b604082019050919050565b6000602082019050818103600083015261337e81613342565b9050919050565b7f4552433732313a207472616e736665722066726f6d20696e636f72726563742060008201527f6f776e6572000000000000000000000000000000000000000000000000000000602082015250565b60006133e1602583612536565b91506133ec82613385565b604082019050919050565b60006020820190508181036000830152613410816133d4565b9050919050565b7f4552433732313a207472616e7366657220746f20746865207a65726f2061646460008201527f7265737300000000000000000000000000000000000000000000000000000000602082015250565b6000613473602483612536565b915061347e82613417565b604082019050919050565b600060208201905081810360008301526134a281613466565b9050919050565b7f4f776e61626c653a2063616c6c6572206973206e6f7420746865206f776e6572600082015250565b60006134df602083612536565b91506134ea826134a9565b602082019050919050565b6000602082019050818103600083015261350e816134d2565b9050919050565b7f4e487b7100000000000000000000000000000000000000000000000000000000600052601260045260246000fd5b7f45524337323155524953746f726167653a2055524920736574206f66206e6f6e60008201527f6578697374656e7420746f6b656e000000000000000000000000000000000000602082015250565b60006135a0602e83612536565b91506135ab82613544565b604082019050919050565b600060208201905081810360008301526135cf81613593565b9050919050565b60008190508160005260206000209050919050565b60006020601f8301049050919050565b600082821b905092915050565b6000600883026136387fffffffffffffffffffffffffffffffffffffffffffffffffffffffffffffffff826135fb565b61364286836135fb565b95508019841693508086168417925050509392505050565b600061367561367061366b846125dd565b612785565b6125dd565b9050919050565b6000819050919050565b61368f8361365a565b6136a361369b8261367c565b848454613608565b825550505050565b600090565b6136b86136ab565b6136c3818484613686565b505050565b5b818110156136e7576136dc6000826136b0565b6001810190506136c9565b5050565b601f82111561372c576136fd816135d6565b613706846135eb565b81016020851015613715578190505b613729613721856135eb565b8301826136c8565b50505b505050565b600082821c905092915050565b600061374f60001984600802613731565b1980831691505092915050565b6000613768838361373e565b9150826002028217905092915050565b6137818261252b565b67ffffffffffffffff81111561379a576137996128a2565b5b6137a48254612bbc565b6137af8282856136eb565b600060209050601f8311600181146137e257600084156137d0578287015190505b6137da858261375c565b865550613842565b601f1984166137f0866135d6565b60005b82811015613818578489015182556001820191506020850194506020810190506137f3565b868310156138355784890151613831601f89168261373e565b8355505b6001600288020188555050505b505050505050565b7f4552433732313a20617070726f766520746f2063616c6c657200000000000000600082015250565b6000613880601983612536565b915061388b8261384a565b602082019050919050565b600060208201905081810360008301526138af81613873565b9050919050565b7f4552433732313a207472616e7366657220746f206e6f6e20455243373231526560008201527f63656976657220696d706c656d656e7465720000000000000000000000000000602082015250565b6000613912603283612536565b915061391d826138b6565b604082019050919050565b6000602082019050818103600083015261394181613905565b9050919050565b600061395482856131b7565b915061396082846131b7565b91508190509392505050565b600081519050919050565b600082825260208201905092915050565b60006139938261396c565b61399d8185613977565b93506139ad818560208601612547565b6139b681612571565b840191505092915050565b60006080820190506139d66000830187612672565b6139e36020830186612672565b6139f06040830185612708565b8181036060830152613a028184613988565b905095945050505050565b600081519050613a1c8161249c565b92915050565b600060208284031215613a3857613a37612466565b5b6000613a4684828501613a0d565b91505092915050565b7f455243373231456e756d657261626c653a20636f6e736563757469766520747260008201527f616e7366657273206e6f7420737570706f727465640000000000000000000000602082015250565b6000613aab603583612536565b9150613ab682613a4f565b604082019050919050565b60006020820190508181036000830152613ada81613a9e565b9050919050565b7f4552433732313a206d696e7420746f20746865207a65726f2061646472657373600082015250565b6000613b17602083612536565b9150613b2282613ae1565b602082019050919050565b60006020820190508181036000830152613b4681613b0a565b9050919050565b7f4552433732313a20746f6b656e20616c7265616479206d696e74656400000000600082015250565b6000613b83601c83612536565b9150613b8e82613b4d565b602082019050919050565b60006020820190508181036000830152613bb281613b76565b9050919050565b7f4e487b7100000000000000000000000000000000000000000000000000000000600052601160045260246000fd5b6000613bf3826125dd565b9150613bfe836125dd565b9250828203905081811115613c1657613c15613bb9565b5b92915050565b7f4e487b7100000000000000000000000000000000000000000000000000000000600052603160045260246000fdfea26469706673582212208bbab1f577edeba1df883bf1a86850517f4625f74e825de5db2f8b02c33f366f64736f6c63430008100033",
  "linkReferences": {},
  "deployedLinkReferences": {}
}